:100000000C9472000C9493000C9493000C94930045
:100010000C9493000C9493000C9493000C94930014
:100020000C9493000C9493000C9493000C94930004
:100030000C9493000C9493000C9493000C949300F4
:100040000C9493000C9473010C9493000C94930003
:100050000C9493000C9493000C9493000C949300D4
:100060000C9493000C94A4000C9493000C949300B3
:100070000C9493000C9493000C9493000C949300B4
:100080000C9493000C9493000C9493000C949300A4
:100090000C9493000C9493000C9493000C94930094
:1000A0000C9493000C9493000C9493000C94930084
:1000B0000C9493000C9493000C9493000C94930074
:1000C0000C9493000C9493000C9493000C94930064
:1000D0000C9493000C9493000C9493000C94930054
:1000E0000C94930011241FBECFEFD1E2DEBFCDBF31
:1000F00000E00CBF12E0A0E0B2E0E0ECF4E000E0D1
:100100000BBF02C007900D92A230B107D9F714E0DF
:10011000A2E0B2E001C01D92A534B107E1F70E9450
:1001200058020C945E020C9400001092020247E008
:1001300050E05093C5004093C40026E02093C200D5
:1001400080E98093C10008958091C0008C7111F501
:100150003091C6003F3F29F180910202813001F5C4
:100160008091030290910402FC01EB5BFD4F232F71
:100170002F7020830196FC01EB5BFD4F32953F70A1
:1001800030830196909304028093030222E0803032
:10019000920730F0109202021092040210920302B1
:1001A000189581E0809302021092040210920302DB
:1001B0001895CF93DF939FEF90930701109208015A
:1001C00091B912B890BB11BA80E18DB98EB91EB841
:1001D00091BB11BA20E030E0F9010024F695E795D3
:1001E0000794F695E7950794FE2FE02DEB5BFD4F06
:1001F0001082118212821382148215821682178253
:10020000EF012896108619821A821B821C821D8299
:100210001E821F822896188219821A821B821C82D3
:100220001D821E821F822896188219821A821B82C2
:100230001C821D821E821F8284E0289618821982E9
:100240001A821B821C821D821E821F82FE0138962A
:1002500018861182128213821482158216821782E6
:10026000DF011896108611961C92119712961C9217
:10027000129713961C92139714961C921497159626
:100280001C92159716961C92169717961C92FE01B3
:100290007896188E11821282138214821582168229
:1002A00017828C5FA096883049F62F5F3F4F283029
:1002B000310509F091CF32E030936F0044E955E009
:1002C0005093890040938800C0918800D0918900A4
:1002D0002196D0938700C093860029E02093810067
:1002E000DF91CF910895809100028D3008F47EC097
:1002F00010920002909101029F5F9093010298304A
:1003000008F0D2C012B880E18EB9C92FD0E0DE016A
:10031000AA0FBB1FAA0FBB1FAA0FBB1FAB5BBD4F12
:10032000E5E0F2E040E050E061E070E056C090E0CF
:1003300011968C9111978183882319F081508183C4
:10034000926012968C9112978283882319F08150C3
:100350008283946013968C9113978383882319F07A
:1003600081508383986014968C911497848388239A
:1003700019F081508483906115968C91159785832F
:10038000882319F081508583906216968C91169778
:100390008683882319F081508683906417968C9108
:1003A00017978783882319F08150878390689093EB
:1003B000080121E030E0CB01042E02C0880F991F14
:1003C0000A94E2F781BB11BA4F5F5F4FA05CBF4F49
:1003D00038964830510509F458C08C9180838823A1
:1003E00009F4A5CF8150808391E0A2CF8F5F8093E5
:1003F000000220E12EB9E5E0F2E020E030E041E04B
:1004000050E03CC090E08181882319F081508183C5
:1004100092608281882319F0815082839460838165
:10042000882319F08150838398608481882319F090
:100430008150848390618581882319F08150858360
:1004400090628681882319F0815086839064878129
:10045000882319F081508783906890930801CA011E
:10046000022E02C0880F991F0A94E2F781BB11BACD
:100470002F5F3F4F38962830310591F080818823D7
:1004800009F28150808391E0BECF109208011EB81E
:100490000C2E02C0220F331F0A94E2F722B91895DE
:1004A000109208011EB818951092010290E02ACF10
:1004B0000E94D9000E9495007894FFCFF894FFCF56
:0204C0000E0824
:00000001FF
